:020000040800F2
:1000000000200010D90F03084D0E02088D3501089D
:100010004B0E0208490E0208470E020800000000BD
:10002000000000000000000000000000450E020873
:10003000430E020800000000410E0208B51200083D
:100040004110030841100308411003084110030840
:100050004110030841100308C923000809250008BE
:10006000C92400088924000849240008616A00089E
:10007000516A0008416A0008316A0008216A0008D4
:100080000D6A0008F96900084110030841100308CF
:10009000D13B02084110030841100308092400085D
:1000A00041100308411003084110030841100308E0
:1000B000A53E0108E93D01082D3D01084110030856
:1000C00041100308411003084110030841100308C0
:1000D000411003084110030841100308F5120008FD
:1000E0008923000841100308310E0208411003085B
:1000F0009D3B010841100308653C010841100308BD
:100100000000000000000000000000004110030893
:100110004110030841100308458700083187000893
:10012000E5690008D1690008BD690008A9690008EF
:10013000956900084110030800000000000000005D
:10014000411003084110030841100308000000009B
:10015000000000000000000000000000000000009F
:1001600000000000000000004110030841100308D7
:100170004110030800000000000000000000000023
:0801800000000000411003081B
:10018800436A8269D154436A0169C26B01338B4265
:1001980028BF002343623AB370B4EFF311835022AF
:1001A80082F31288C66B3268D20704D5DBB283F3B8
:1001B800118870BC7047716869B9D0E909429442E6
:1001C80018D085691544F56018D9A21A726084623E
:1001D800002280F85820326842F00102DBB2326017
:1001E80083F3118870BC7047426D136843F0800335
:1001F80013607047012280F85820D7E70469A21AD3
:1002080072608162E4E700BF034610B4846BD9686A
:10021800406954B19A6C8C1A013A005D5DF8044B40
:1002280008BF0A46C0B29A6470471A6A805C0132F5
:100238008A4228BF2246C0B21A625DF8044B704752
:10024800C36B13B190F858007047D0E90903181A26
:10025800B0FA80F040097047D0E909120369914269
:1002680038BFC9188A1AC16B013B19B149680A44D9
:100278009A4201D2981A704700207047836B43B1A5
:10028800826C5B689A4291BF981AC0689B1AC01822
:100298007047D0E907239A422FBFD01AC068801848
:1002A800C01A70472B2303732A2383700023837596
:1002B800704700BF03682DE9F0415D6A1DB12B4608
:1002C800BDE8F0411847002A174611DD04460E46DE
:1002D8000F4400E023689B68204698470028F9D01F
:1002E800236816F8011B1B6820469847BE42F1D1C7
:1002F800BDE8F08103681B69184700BF002323226B
:10030800027043708370C370704700BF0028F0B458
:1003180003DA2D230B7040420131092804464FF0BF
:10032800010307DD03EB83035B00B0FBF3F2092A4B
:10033800F8D883B10F48A0FB0326B4FBF3F2092ACF
:1003480002F1570C02F1300709DD03FB1244F308F0
:1003580001F801CBEFD100230B70F0BC704703FB11
:100368001244F30801F8017BE5D100230B70F0BCBF
:10037800704700BFCDCCCCCC884270B44FF001049C
:1003880042D301FB04F4B0FBF4F58D42F9D2ECB191
:1003980042BB092D04FB150005F1570605F1300293
:1003A8000EDDB4FBF1F403F8016B7CB1B0FBF4F59E
:1003B800092D04FB150005F1570605F13002F0DCA4
:1003C800B4FBF1F403F8012B002CEFD100221A70D2
:1003D80070BC704703F8016BB4FBF1F4002CF5D046
:1003E800B0FBF4F5092D04FB150005F1370605F1FE
:1003F8003002EFDCB4FBF1F403F8012B002CEFD151
:1004080000221A7070BC70470546002AEAD1C0E77E
:100418002DE9F04714461D4606464FF47A7200232C
:100428002046294630F008FC4D4BDFF848814D4AFC
:100438004D4F034488FB03101844D91782FB032C43
:10044800C1EB601088FB002887FB03279C44474AC0
:10045800C1EBEC2CC0EB001E82FB0C29A3EB8E0E2B
:100468001F44434A86F806E0C1EB27474FEAEC7E73
:1004780008EB000ACEEBA90E82FB07824FEAE07870
:100488000EEB4E0EC8EB6A18ACEBCE0CC8EB081896
:10049800DFF8E4E086F804C0A0EB880070718EFBFA
:1004A8000303F817C0EBE21240F2B55000FB1272DA
:1004B800C1EBE353B2F5896F4FEA83073CDA40F2A8
:1004C800DA239A4242DCB2F5B77FB4BF4FF0000E90
:1004D8004FF0010E4FEA4E09DFF8A08009EB0E033A
:1004E80008EBC3031FFA8EFCD88A09EB0E0108EB50
:1004F800C10116310B2301E031F8020D904218DDDD
:10050800013BF9D1CE44012338F83E00B37007F51A
:10051800FA670132121ABC44F270A6F800C02046ED
:1005280029464FF47A72002330F086FB3281BDE809
:10053800F0870133DBB2E9E74FF0030CE64640F2FF
:100548009650DFF838804FF00609CEE74FF0020CDE
:10055800DFF82880E64640F229404FF00409C4E756
:1005680080BC92C7C5B3A29107452EC2ABAAAA2ADE
:1005780073B06D1689888888792D031124150308AE
:1005880003685A1C02601970704700BF2DE9F047D4
:10059800089C2578002B804689460CBF4FF0200A1E
:1005A8004FF0300A661C25B3002A26DD334601E0E9
:1005B800024698B113F8011B501E0029F8D1971E66
:1005C80060B13D46013D51464046C8476B1C002B73
:1005D800F8DC257827EAE770013045B1041B294685
:1005E8004046C847301916F8015B002DF7D1BDE821
:1005F800F087002A03DC2846F9E70020EEE7571EBB
:10060800DFE700BF90ED057A90ED004AD0ED066A6D
:10061800D0ED014AD0ED047A90ED035AD0ED025A9C
:10062800A4EE007AB0EE406AB0EE470AB0EE667A01
:10063800A4EE867A67EEC07AA5EE407AE5EE867A71
:1006480080ED057AC0ED067A704700BFD0ED057AD7
:1006580090ED013AD0ED003AD0ED064A90ED024A0D
:1006680090ED077A90ED035A90ED086AD0ED045AA0
:10067800C0ED067AF0EE406A27EE830AC0ED056AFF
:10068800A3EEA60A80ED087AA4EE240AA5EE470A8E
:10069800A5EEC60A80ED070A704700BFD0ED007AC4
:1006A80090ED017A30EE670AE7EE007AB0EE670A5D
:1006B800C0ED007A704700BF704700BF034600F1E5
:1006C8001001FF221A705A7002338B42FAD102715C
:1006D8004271704730B409232C25022419211A22AB
:1006E8000370002345728472C1720273437330BC75
:1006F800704700BF06224FF47A7302704360704758
:100708000123212100224170C27003708370704759
:1007180030B402230025012414213D220570847081
:10072800C17082714370C37130BC704730B41522F8
:10073800162317252D242E21027043702F22FF2304
:10074800857044718171C271C37003710372437201
:1007580030BC7047CB794A7930B48D790C7BDB0992
:10076800520202F4606243EA4503134322071DD490
:100778000380CB790A7A5B0103F47E6343EAD203F0
:1007880043808B7A0A7A4C7ADB09520243EA4403A3
:1007980002F46062134383808B7ACA7A5B0103F4A4
:1007A8007E6343EAD203C38030BC70470381CB79B0
:1007B8000A7A5B0103F47E6343EAD20343818B7AAE
:1007C8000A7A4C7ADB09520243EA440302F4606273
:1007D800134383818B7ACA7A5B0103F47E6343EA0D
:1007E800D203C38130BC704701207047F0B58F7ABF
:1007F80091F809C04D7B0A7CCB7C2D4E3C0204F459
:1008080070644CEA040491F80BC085B03F0947EACC
:100818000C174FEA052EADF802708F7BADF800403B
:100828000EF4706C2D0991F80CE045EA07151702D3
:100838004EEA0C0E07F4706CCF7BADF804E047EA83
:100848000C0791F811E091F814C0ADF806508D7CB2
:10085800ADF808701902120901F470611B0942EA27
:100868000E12294343EA0C1304ADADF80A20ADF883
:100878000C10ADF80E300DF10202C5F10E0CC5F1E9
:100888001E0701E032F8024BC4F30A0303F2CA431D
:1008980021054FEA4303A6FB03134CBFB9180CEB21
:1008A80002015B08AA424352ECD105B0F0BD00BF7B
:1008B800ABAAAAAAF0B4174C2378591C01F03F013F
:1008C800E5184B1C21447E2603F03F021B232E71A2
:1008D80022700B71C61D7D2704E0A518B042DAB25C
:1008E800297113D010F8011BA1F17D05531C012DAE
:1008F80003F03F03F1D82244E51881F020010133C9
:10090800B042177103F03F022971EBD12270F0BC9D
:10091800704700BF08240020F0B58F7A8D79CC7A13
:10092800CE790A7CDFED5F3A4B7C4FEA072E0EF456
:10093800706E45EA0E053F0107F4706C04EE105A1C
:100948004FEA042E0D7A240104F470670EF4706ED9
:1009580046EA0C0404EE904A45EA0E0405EE104AF5
:100968004C7AF8EEE44A3C4305EE904A16020C7BBA
:10097800120102F4706506F470664A7BB8EEC55A37
:1009880064EEA34A34432A4306EE104AF8EEE55AC9
:1009980025EE235AFCEEE44A06EE902A1D028A7BD5
:1009A8001B0185B003F4706405F47065CB7BB8EE69
:1009B800C66A14EE901A65EEA35ABCEEC55A2A43CD
:1009C80007EE102AB8EEC44AF8EEE66A26EE236A65
:1009D800FCEEE55AADF8021015EE101A234307EEA7
:1009E800903AB8EEC77A24EE234A66EEA36ABCEEC4
:1009F800C66AADF8041015EE901AF8EEE77A27EEFD
:100A0800237ABCEEC44AFCEEE66AADF8061016EE90
:100A1800101A67EEA37A14EE103ABCEEC77AADF856
:100A2800081016EE901A9BB2FCEEE77AADF80A10A1
:100A380017EE101A1A46ADF80C10A2F5487217EE08
:100A4800901A0DF10204B2F5AF6FADF80E10ADF8C3
:100A58000030214604AD08D8A9420CD031F8022B49
:100A6800A2F54872B2F5AF6FF6D90F4B1B78122B6F
:100A78000CD005B0F0BD821E0E3001E034F8023B08
:100A880022F8023F9042F9D105B0F0BD074A084963
:100A9800B2F8443001339BB2A2F844300B8005B061
:100AA800F0BD00BFABAA2A3F5C78002008240020D4
:100AB80068780020054A92F846303F2B05D8D118AF
:100AC800013381F8480082F8463070470824002036
:100AD800014BD3F888301847082400200206144A2E
:100AE8001449127800EBC0034FEA131346BF523B78
:100AF8001BB24133032AA1F88C3000D0704770B480
:100B08000D4D0E4E28780E4C36F81020DB009BB2A7
:100B18009A1A26F810302368411C134409482360A8
:100B280001F00F011A092970028070BC704700BFDC
:100B38004A340020082400204B3400204C34002084
:100B48006C3400207034002038B590F90E30002B3A
:100B580001DB002038BD0378812BFAD1104D427992
:100B680095F98E30B3EBD20FF3D149B195F89120B6
:100B780043789A42EDD195F8922083789A42E8D149
:100B88000446407BFFF7AAFFE37A227B9B0003F031
:100B98001C0343EA921385F8C830012038BD00BF12
:100BA800082400204FF4006303837047012380F872
:100BB8005030704770B4D0E90041057B02690223C8
:100BC800AB4063600B684FF6FE7003400B60EFF3B9
:100BD8001183502181F31288D66B3168C9071CD460
:100BE800706870B9D2E909418C4213D095690D44F7
:100BF800F56017D81469611A71609062002182F853
:100C08005810326842F00102DBB2326083F3118877
:100C180070BC7047012182F85810DBB283F3118849
:100C280070BC7047611A71609462E7E770B4046839
:100C3800037B2268022101FA03F31A4217D00269E2
:100C48001249134802EB420201EB42120578506840
:100C5800016875B9C568528928684FF6FE76304034
:100C68002860C868D24392B20240CA60636070BC10
:100C78007047406902684FF6FE752A400260CA68EC
:100C88004FF6FF600240CA60F0E700BF346A0020F8
:100C9800306A002030B50446406D21710368A268AF
:100CA80023F00103036087B06379009213F0040F07
:100CB8004FEA03324FEA032314BF4FF4805500254F
:100CC80003F4806302F400520195CDE90223002564
:100CD80011F0010305952ED1049308238D07694669
:100CE80048BF049320F008FD2079636D617900F016
:100CF8000202002A15BF4FF440324FF480324FF4FD
:100D08000034002410F0010F586808BF2246CC07B1
:100D18004CBF024320EA02025A609A6809074CBF96
:100D280042F0080222F008029A601A6842F00102B2
:100D38001A6007B030BD042304930C23CEE700BF2C
:100D480030B50446406DA160036823F001030360D9
:100D58006379257987B013F0040F4FEA03324FEA1D
:100D6800032303F4806302F40052CDE902230091C7
:100D780014BF4FF480510021EB0748BF04230191B1
:100D88004FF00001CDE9041154BF082304936946CC
:100D980048BF0C23AD0748BF049320F0ADFC207971
:100DA800636D617900F00202002A15BF4FF44032EA
:100DB8004FF480324FF40034002410F0010F5868CB
:100DC80008BF2246CC074CBF024320EA02025A6001
:100DD8009A6809074CBF42F0080222F008029A609C
:100DE8001A6842F001021A6007B030BD30B401221F
:100DF8000023102511244FF6FF71457044710272CB
:100E08000270027143818381C3810182817430BC85
:100E1800704700BF38B50E4B1B78044600F1250516
:100E280043B9284614220B4930F063FB012384F8A8
:100E38003A3038BD04220849203030F05AFB2846A1
:100E48001422064930F055FB012384F83A3038BDA6
:100E58004C380020D44603084D3800205238002072
:100E680010B500210446012013F0BAF8207010BD17
:100E780038B52C22002130F0FEFA034619246420EC
:100E880040F2DC5140F21A421C73187440F20224FA
:100E9800132059829A82202140F2753240F26C75F3
:100EA8001C8398760E2402201977DA830A210122FE
:100EB800DD8283F82A0040F6430583F82B1083F877
:100EC80022409A7383F8252083F829201D84194627
:100ED8000248BDE838401DF0CBB900BFE44603081E
:100EE80010B51A4C362006F011FF94F98E3003EB3A
:100EF80043032344232093F8CC1006F0FFFE94F913
:100F08008E3003EB43032344242093F8CD1006F0DE
:100F1800F5FE94F98E3003EB43032344252093F820
:100F2800CE1006F0EBFE94F88E1001EB410149005B
:100F3800103101F0FE010A2006F0E0FE3A2006F02A
:100F4800E5FE3420BDE8104006F0E0BE082400208D
:100F5800094890F8C81090F98E300B44DAB2931C07
:100F68005BB21D2BC4BFA2F11D035BB2002BF4DBE7
:100F780080F88E30B4E700BF0824002010B50D4B70
:100F88000D4A0E4C1B781268C4F82C21132B4FF015
:100F9800C00284F8302103D1094B4FF6C072DA80C1
:100FA800C0210C2006F0AAFE0F2384F88E30BDE87D
:100FB800104095E75C780020505400200824002059
:100FC8006878002010B5264C94F8313194F8322115
:100FD8001844C0B2904284F8310105D3801AC0B2D7
:100FE8009042FBD284F83101362006F08FFE94F847
:100FF80031312344232093F8943003EB43032344F3
:1010080093F8341106F07AFE94F831312344242001
:1010180093F8943003EB4303234493F8351106F017
:101028006DFE94F831312344252093F8943003EB76
:101038004303234493F8361106F060FE94F83131E7
:1010480023440A2093F8941006F058FE94F831349B
:10105800082B00D010BD3A20BDE8104006F056BE5F
:101068000824002038B50F4C054694F893100C203E
:1010780006F044FE0821182006F040FE85B994F8D1
:101088009110092006F03AFE0D21072006F036FEE1
:101098001621192006F032FEBDE8384024F052BE71
:1010A8000321EEE70824002038B50D4604463B200E
:1010B80006F02CFE2A462146034825F079FE352005
:1010C800BDE8384006F022BE383D00201B4B1B68A7
:1010D80070B56BBB1A4B1D784DB31A4A1A4B117871
:1010E8004FF4987202FB053540F20D3610E058684F
:1010F8001C894460046844F001040460A2F8486054
:10110800D06803F5987340F48070AB42D0600ED07D
:101118001A680029EBD15162B3F82C01D468204336
:10112800D06003F5987323F8041CAB42F0D170BD6E
:1011380006F0F2FD0028CDD170BD00BF082A0020BE
:10114800346D0020306A0020386D0020224B5B6827
:10115800C3F3080330B4D3B9EFF31183BBB91F4A03
:101168001F4D20481368846811688B42FAD129689A
:101178008C42F7D81C4A11684FF47A7202FB01F0CE
:10118800001B30BCB0FBF1F002FB03007047EFF32B
:101198001182102383F3128803F1E023D2B29C68F2
:1011A800196811F4803F11491EBF012008609C682E
:1011B8000A4B18680B6882F311880B4A11684FF4C0
:1011C8007A72034402FB01F0001B30BCB0FBF1F063
:1011D80002FB0300704700BF00ED00E05054002000
:1011E8005854002010E000E0545400204C540020D3
:1011F8002DE9F84F8046274C274DDFF8A490274E5D
:10120800FFF7A4FFDFF89CE0DFF89CC04FF0100A5E
:101218004FF47A77DCF80430C3F30803CBB9EFF363
:101228001183B3B92368A96822689342FAD1326856
:101238009142F7D8DEF8002007FB02FBABEB010177
:10124800B1FBF2F107FB03131B1A4345E2D3BDE8D8
:10125800F88FEFF311818AF31288D5F808B02B685C
:10126800DB0304D50123C9F80030D5F808B023689A
:10127800D9F80020C9B281F31188DEF800101344B0
:1012880007FB01F2A2EB0B02B2FBF1F207FB03230F
:10129800DAE700BF5054002010E000E05854002066
:1012A8004C5400205454002000ED00E030B4EFF31B
:1012B8001183102282F31288084809490268094DEF
:1012C800094C013202608A682A6000222260DBB27F
:1012D8000A6883F3118830BC704700BF505400205F
:1012E80010E000E0585400204C5400201D4B70B50D
:1012F8009C68636DA26BDD69CAB1E36B33B12B07E0
:1013080000D470BD636D08221A6270BD2A06F6D536
:10131800D4E909028242616D11D0501CA669A0620D
:10132800B25C26690A85B042E9D3A362E7E7A90659
:10133800E3D5E26A42B1988C216B9047DDE70B68F0
:1013480023F080030B60DAE7E1699B8C6069DBB20C
:101358004E1CE6614354E169E368994228BFE261A3
:10136800CBE700BF082F0020002A12DD70B5044625
:101378000D468E18236820469B6898470028F9D0A8
:10138800236815F8011B1B6820469847B542F1D120
:1013980070BD70470368DB6A03B11847704700BF28
:1013A80003689B6A03B11847704700BF03682DE9BB
:1013B800F0415D6A1DB12B46BDE8F0411847002A8F
:1013C800174611DD04460E460F4400E023689B686B
:1013D800204698470028F9D0236816F8011B1B6897
:1013E80020469847BE42F1D1BDE8F08103685B69A9
:1013F800184700BF0368DB68184700BF03689B688D
:10140800184700BF03685B68184700BF03681B687C
:10141800184700BF014B1868F8E700BFCC30002020
:1014280003682DE9F04F03F13845A94EAD0A0124B0
:10143800755D05F01F066D09022D04FA06F400F02B
:101448008D81032D00F08581012D00F03B8180887E
:10145800B0FA80F4C4F11F04A4B2E50803EB8505D3
:1014680004F007042E6AA4000F27A74026EA0706FF
:101478002E622E6A01F0030702FA04F47A1E34433E
:10148800012AC1F3810EC1F300182C62C1F3411186
:1014980040F22281C60700F10881850700F1F68035
:1014A800440700F1E480020700F1D280C60600F18B
:1014B800C080850600F1AE80440600F19C800206DB
:1014C80000F18A80C60578D4850567D4440556D4CA
:1014D800020545D4C60434D4850423D4440412D464
:1014E800020401D4BDE8F08F1A6822F040421A6065
:1014F8001A6842EA87771F60DA6822F0404242EAB7
:101508008171D960EEE71A6822F040521A601A68B1
:1015180042EA07721A60DA6822F0405242EA01721F
:10152800DA60DDE71A6822F040621A601A6842EA57
:1015380087621A60DA6822F0406242EA8162DA6001
:10154800CCE71A6822F040721A601A6842EA076209
:101558001A60DA6822F0407242EA0162DA60BBE798
:101568001A6822F440021A601A6842EA87521A601E
:10157800DA6822F4400242EA8152DA60AAE71A687D
:1015880022F440121A601A6842EA07521A60DA68AE
:1015980022F4401242EA0152DA6099E71A6822F40A
:1015A80040221A601A6842EA87421A60DA6822F40E
:1015B800402242EA8142DA6088E71A6822F440321F
:1015C8001A601A6842EA07421A60DA6822F440325E
:1015D80042EA0142DA6077E71A6822F440421A6068
:1015E8001A6842EA87321A60DA6822F4404242EA0C
:1015F8008132DA6066E71A6822F440521A601A6883
:1016080042EA07321A60DA6822F4405242EA0132AA
:10161800DA6054E71A6822F440621A601A6842EAEB
:1016280087221A60DA6822F4406242EA8122DA608C
:1016380042E71A6822F440721A601A6842EA0722DE
:101648001A60DA6822F4407242EA0122DA6030E76E
:101658001A6822F0C0021A601A6842EA87121A60F1
:10166800DA6822F0C00242EA8112DA601EE71A68DC
:1016780022F030021A601A6842EA07121A60DA6821
:1016880022F0300242EA0112DA600CE71A6822F00E
:101698000C021A601A6842EA87021A60DA6822F0B5
:1016A8000C0242EA8102DA60FAE61A6822F00302C2
:1016B8001A601A683A431A60DA6822F003020A4389
:1016C800DA60EAE6034D6E6934436C61BFE600BF39
:1016D800D04003080010024000224FF0010C4FF0E8
:1016E80003090CFA02F636EA00042ED15400D3F8A6
:1016F80008A009FA04F5ED4305EA0A0AC3F808A0A8
:10170800D3F808B00EFA04FA4AEA0B0AC3F808A09C
:10171800B3F804A02AEA06069E80B3F804A008FAE3
:1017280002F646EA0A06B6B29E801E682E401E6081
:10173800D3F800A007FA04F646EA0A061E60DE6837
:1017480001FA04F435402C43DC600132102AC8D178
:10175800C8E6054DEE693443EC6178E6024DAE69A2
:101768003443AC6173E600BF00100240036803F124
:1017780038422DE9F04F920AA74DAA5C02F01F05E6
:1017880052090124022A04FA05F400F09F81032A71
:1017980000F09781012A00F0518101F003077A1EB9
:1017A800012AC1F3810EC1F300188488C1F34111E5
:1017B80040F24981E60700F13181A50700F11A815D
:1017C800600700F10581220700F1F080E60600F1CC
:1017D800DB80A50600F1C680600600F1B180220614
:1017E80000F19C80E60500F18780A50572D46005AC
:1017F8005FD422054CD4E60439D4A50426D4600469
:1018080013D4220401D4BDE8F08F1A6822F04042B4
:101818001A601A6842EA87771F60DA6822F0404245
:1018280042EA8171D960BDE8F08F1A6822F040520F
:101838001A601A6842EA07721A60DA6822F040529F
:1018480042EA0172DA602204DDD5DEE71A6822F086
:1018580040621A601A6842EA87621A60DA6822F0FF
:10186800406242EA81626004DA60CAD5DDE71A683C
:1018780022F040721A601A6842EA07621A60DA684F
:1018880022F0407242EA0162A504DA60B7D5DDE7CA
:101898001A6822F440021A601A6842EA87521A60EB
:1018A800DA6822F4400242EA8152E604DA60A4D5FA
:1018B800DDE71A6822F440121A601A6842EA0752F1
:1018C8001A60DA6822F4401242EA0152DA6022050C
:1018D80091D5DDE71A6822F440221A601A6842EAB4
:1018E80087421A60DA6822F4402242EA814260059F
:1018F800DA607FF57EAFDCE71A6822F440321A60BE
:101908001A6842EA07421A60DA6822F4403242EA68
:101918000142A505DA607FF56AAFDBE71A6822F4B1
:1019280040421A601A6842EA87321A60DA6822F47A
:10193800404242EA8132E605DA607FF556AFDBE7DE
:101948001A6822F440521A601A6842EA07321A608A
:10195800DA6822F4405242EA0132DA6022067FF560
:1019680041AFDBE71A6822F440621A601A6842EA5B
:1019780087221A60DA6822F4406242EA812260060D
:10198800DA607FF52CAFDBE71A6822F440721A6040
:101998001A6842EA07221A60DA6822F4407242EAB8
:1019A8000122A506DA607FF517AFDBE71A6822F097
:1019B800C0021A601A6842EA87121A60DA6822F0CE
:1019C800C00242EA8112E606DA607FF502AFDBE781
:1019D8001A6822F030021A601A6842EA07121A607E
:1019E800DA6822F0300242EA0112DA6022077FF553
:1019F800EDAEDBE71A6822F00C021A601A6842EAB8
:101A080087021A60DA6822F00C0242EA8102600753
:101A1800DA607FF5D8AEDBE7D04003081A6822F019
:101A280003021A601A683A431A60DA6822F003025D
:101A38000A43A507DA607FF5C3AEDBE7264A556996
:101A48002C435461A9E600224FF0010C4FF0030922
:101A58000CFA02F636EA04002ED15000D3F808A09A
:101A680009FA00F5ED430AEA050AC3F808A0D3F815
:101A780008B00EFA00FA4AEA0B0AC3F808A0B3F84D
:101A880004A02AEA06069E80B3F804A008FA02F623
:101A980046EA0A06B6B29E801E682E401E60D3F83B
:101AA80000A007FA00F646EA0A061E60DE6801FA98
:101AB80000F035402843D8600132102AC8D1BDE86B
:101AC800F08F054AD5692C43D46166E6024A9569C8
:101AD8002C43946161E600BF0010024010B5040970
:101AE800013C052C17D80E4B33F8142000F00F00DA
:101AF80042FA00F313F001030FD0012303FA00F0B8
:101B0800013810402FF0E8F8064A074B125D1044E0
:101B180003EBC00010BD002010BD184610BD00BF6B
:101B2800D4410308E04103085C5400202DE9F04F3C
:101B38004A484B4B4B4C4FF090414FF0010A4FF045
:101B480002094FF004084FF0080E4FF0100C202740
:101B58004026802530F8022B12F0010F03D01960BF
:101B6800A3F804A0083312F0020F03D01960A3F8F9
:101B78000490083312F0040F03D01960A3F804800E
:101B8800083312F0080F03D01960A3F804E00833F3
:101B980012F0100F03D01960A3F804C0083312F034
:101BA800200F02D019609F80083312F0400F02D036
:101BB80019609E80083312F0800F02D019609D8052
:101BC800083312F4807F05D04FF4807B1960A3F8A6
:101BD80004B0083312F4007F05D04FF4007B19607D
:101BE800A3F804B0083312F4806F05D04FF4806B6B
:101BF8001960A3F804B0083312F4006F05D04FF44D
:101C0800006B1960A3F804B0083312F4805F05D0A4
:101C18004FF4805B1960A3F804B0083312F4005F36
:101C280005D04FF4005B1960A3F804B0083312F430
:101C3800804F05D04FF4804B1960A3F804B00833E7
:101C4800D20B04D04FF4004219609A80083301F592
:101C58008061A1427FF47EAFBDE8F08FD4410308D4
:101C68005C5400200018004800B9704703682DE94B
:101C7800F04F03F138449C4EA40A0125345D04F06A
:101C88001F066409022C05FA06F500F07481032C7E
:101C980000F06C81012C00F022818088B0FA80F479
:101CA800C4F11F04A4B2E50803EB850504F007049A
:101CB8002E6AA4000F27A74026EA07062E622E6A7E
:101CC80001F00307A2407C1E3243012CC1F3810EB0
:101CD800C1F300182A62C1F3411140F20981C60715
:101CE8000BD51A6822F003021A601A683A431A6080
:101CF800DA6822F003020A43DA6085070DD51A680C
:101D080022F00C021A601A6842EA87021A60DA683E
:101D180022F00C0242EA8102DA6044070DD51A6803
:101D280022F030021A601A6842EA07121A60DA686A
:101D380022F0300242EA0112DA6002070DD51A6871
:101D480022F0C0021A601A6842EA87121A60DA683A
:101D580022F0C00242EA8112DA60C6060DD51A687E
:101D680022F440721A601A6842EA07221A60DA6896
:101D780022F4407242EA0122DA6085060DD51A681B
:101D880022F440621A601A6842EA87221A60DA6806
:101D980022F4406242EA8122DA6044060DD51A68CC
:101DA80022F440521A601A6842EA07321A60DA6866
:101DB80022F4405242EA0132DA6002060DD51A686E
:101DC80022F440421A601A6842EA87321A60DA68D6
:101DD80022F4404242EA8132DA60C6050DD51A681B
:101DE80022F440321A601A6842EA07421A60DA6836
:101DF80022F4403242EA0142DA6085050DD51A68BC
:101E080022F440221A601A6842EA87421A60DA68A5
:101E180022F4402242EA8142DA6044050DD51A686C
:101E280022F440121A601A6842EA07521A60DA6805
:101E380022F4401242EA0152DA6002050DD51A680E
:101E480022F440021A601A6842EA87521A60DA6875
:101E580022F4400242EA8152DA60C6040DD51A68BB
:101E680022F040721A601A6842EA07621A60DA6859
:101E780022F0407242EA0162DA6085040DD51A68E0
:101E880022F040621A601A6842EA87621A60DA68C9
:101E980022F0406242EA8162DA6044040DD51A6891
:101EA80022F040521A601A6842EA07721A60DA6829
:101EB80022F0405242EA0172DA6002040DD51A6833
:101EC80022F040421A601A6842EA87771F60DA688F
:101ED80022F0404242EA8171D960BDE8F08F034C9C
:101EE800666935436561D8E6D040030800100240B2
:101EF80000224FF0010C4FF003090CFA02F636EA03
:101F080000042ED15400D3F808A009FA04F5ED43D3
:101F180005EA0A0AC3F808A0D3F808B00EFA04FACA
:101F28004AEA0B0AC3F808A0B3F804A02AEA06068E
:101F38009E80B3F804A008FA02F646EA0A06B6B28A
:101F48009E801E682E401E60D3F800A007FA04F693
:101F580046EA0A061E60DE6801FA04F435402C439E
:101F6800DC600132102AC8D1BDE8F08F044CE66964
:101F78003543E56191E6024CA6693543A5618CE6D7
:101F88000010024000B97047036803F138422DE998
:101F9800F04F920AB24DAA5C02F01F0552090124C3
:101FA800022A04FA05F400F05F81032A00F0538145
:101FB800012A00F00D8101F003077A1E012AC1F3FE
:101FC800810EC1F300188488C1F3411140F20581E4
:101FD800E6070BD51A6822F003021A601A683A431A
:101FE8001A60DA6822F003020A43DA60A5070DD501
:101FF8001A6822F00C021A601A6842EA87021A600C
:10200800DA6822F00C0242EA8102DA6060070DD534
:102018001A6822F030021A601A6842EA07121A6037
:10202800DA6822F0300242EA0112DA6022070DD59E
:102038001A6822F0C0021A601A6842EA87121A6007
:10204800DA6822F0C00242EA8112DA60E6060DD5AB
:102058001A6822F440721A601A6842EA07221A6063
:10206800DA6822F4407242EA0122DA60A5060DD548
:102078001A6822F440621A601A6842EA87221A60D3
:10208800DA6822F4406242EA8122DA6060060DD5FD
:102098001A6822F440521A601A6842EA07321A6033
:1020A800DA6822F4405242EA0132DA6022060DD59B
:1020B8001A6822F440421A601A6842EA87321A60A3
:1020C800DA6822F4404242EA8132DA60E6050DD548
:1020D8001A6822F440321A601A6842EA07421A6003
:1020E800DA6822F4403242EA0142DA60A5050DD5E9
:1020F8001A6822F440221A601A6842EA87421A6073
:10210800DA6822F4402242EA8142DA6060050DD59D
:102118001A6822F440121A601A6842EA07521A60D2
:10212800DA6822F4401242EA0152DA6022050DD53B
:102138001A6822F440021A601A6842EA87521A6042
:10214800DA6822F4400242EA8152DA60E6040DD5E8
:102158001A6822F040721A601A6842EA07621A6026
:10216800DA6822F0407242EA0162DA60A5040DD50D
:102178001A6822F040621A601A6842EA87621A6096
:10218800DA6822F0406242EA8162DA6060040DD5C2
:102198001A6822F040521A601A6842EA07721A60F6
:1021A800DA6822F0405242EA0172DA6022040DD560
:1021B8001A6822F040421A601A6842EA87771F605C
:1021C800DA6822F0404242EA8171D960BDE8F08FB6
:1021D800244A55692C435461EDE600224FF0010C66
:1021E8004FF003090CFA02F636EA04002ED150002B
:1021F800D3F808A009FA00F5ED430AEA050AC3F87E
:1022080008A0D3F808B00EFA00FA4AEA0B0AC3F895
:1022180008A0B3F804A02AEA06069E80B3F804A032
:1022280008FA02F646EA0A06B6B29E801E682E40F2
:102238001E60D3F800A007FA00F646EA0A061E60F8
:10224800DE6801FA00F035402843D8600132102AD0
:10225800C8D1BDE8F08F034AD5692C43D461AAE6FA
:10226800D040030800100240024A95692C4394614B
:10227800A1E600BF0010024030B102688388918A4D
:102288000B4218BF1B049361704700BF10B103686D
:1022980082881A85704700BF10B1036882889A61E6
:1022A800704700BF18B1838811B102689361704705
:1022B8001B04FAE70E4B1B8801463BB90D4B0E4A2F
:1022C8001B7810680BB981F00101EBE70B4B5A69D9
:1022D8001AB11A6810B9106058747047084809494B
:1022E800008891FBF0F1012011605874704700BF1D
:1022F800CC550020CE550020D0550020D4550020C4
:10230800EC55002020A1070038B5074B03EBC005AA
:102318002C796A794C40A24205D053F83000214606
:10232800FFF7C0FF6C7138BD0C68002010B40A4B71
:102338000A4A1C7801238340234052F8200029B917
:10234800B3FA83F149095DF8044BABE7191C18BFD0
:1023580001215DF8044BA5E7BC550020C0550020BD
:1023680030B102688388128A1A4214BF0120002003
:10237800704700BF014BD3F83404F1E7082400206C
:102388002DE9F0410C4E356873691D4011D0DFF816
:102398002C800127B5FA85F4C4F11F0408EB8403E7
:1023A80007FA04F4D3F8380403689847A54374611E
:1023B800F0D1BDE8F08100BF0004014008240020EE
:1023C8002DE9F0410C4E356873691D4011D0DFF8D6
:1023D8002C800127B5FA85F4C4F11F0408EB8403A7
:1023E80007FA04F4D3F8380403689847A5437461DE
:1023F800F0D1BDE8F08100BF0004014008240020AE
:102408002DE9F0410C4E356873691D4011D0DFF895
:102418002C800127B5FA85F4C4F11F0408EB840366
:1024280007FA04F4D3F8380403689847A54374619D
:10243800F0D1BDE8F08100BF00040140082400206D
:102448002DE9F0410C4E356873691D4011D0DFF855
:102458002C800127B5FA85F4C4F11F0408EB840326
:1024680007FA04F4D3F8380403689847A54374615D
:10247800F0D1BDE8F08100BF00040140082400202D
:102488002DE9F0410C4E356873691D4011D0DFF815
:102498002C800127B5FA85F4C4F11F0408EB8403E6
:1024A80007FA04F4D3F8380403689847A54374611D
:1024B800F0D1BDE8F08100BF0004014008240020ED
:1024C8002DE9F0410C4E356873691D4011D0DFF8D5
:1024D8002C800127B5FA85F4C4F11F0408EB8403A6
:1024E80007FA04F4D3F8380403689847A5437461DD
:1024F800F0D1BDE8F08100BF0004014008240020AD
:102508002DE9F0410C4E356873691D4011D0DFF894
:102518002C800127B5FA85F4C4F11F0408EB840365
:1025280007FA04F4D3F8380403689847A54374619C
:10253800F0D1BDE8F08100BF00040140082400206C
:10254800094A10B59369094C43F00103936104F5F6
:102558008760402200212EF08EFF4FF0FF33C4F831
:102568007834C4F87B3410BD0010024008240020E1
:1025780003681B6A184700BF70B44E1C0568C27216
:102588008672AC69A44670BC604700BF2DE9F04173
:10259800044618460D4616461F462EF091F8284464
:1025A800A0722068E672294645693B4632462046B5
:1025B800AC46BDE8F0416047036810B504461B68A7
:1025C8009847236820469B689847A37B0133A373E9
:1025D80010BD00BF10B5036804469B689847FF23E9
:1025E80001226373227310BD70B5054600780E464C
:1025F800FFF774FA044618B1382301368371C6719F
:1026080020466978FFF7BEFCAB78204613B1BDE8D9
:10261800704041E6BDE8704038E600BF0B4B984279
:1026280011D0A3F57843984202D04FF0FF3070479D
:102638000122074B03EB02135A89013292B25A81E5
:10264800588980B270470022F3E700BF003001408C
:10265800C0670020F8B584894FF6FF764FF47A7486
:102668002BB311B30F78013101E0B44217D00589BB
:10267800013CAD07A4B2F8D507734FF47A7402E0B1
:10268800BCB2B4420BD00589ED0704F1FF37F7D58A
:10269800057BEDB20AB115700132013BE0E7FFF7A7
:1026A800BDFF003018BF0120F8BDFF27DFE701207C
:1026B800F8BD00BF08B540F2E93300E09BB10289DC
:1026C800013B12F0020F9BB2F8D0017340F2E933DC
:1026D80000E043B10289013B12F0010F9BB2F8D030
:1026E800007BC0B208BDFFF799FFC0B208BD00BFAC
:1026F80038B58368054613B11A689B8813856868DE
:1027080040F2E93301E0002B35D00289013B12F099
:10271800020F9BB2F7D0017340F2E93300E053B3E4
:102728000289013B12F0010F9BB2F8D0037B686865
:10273800838940F2E93300E0D3B10289013B12F00A
:10274800020F9BB2F8D0FF23037340F2E93300E095
:1027580073B10289013B12F0010F9BB2F8D0047BE0
:10276800E4B2AB6813B11A689B889361204638BD00
:10277800FFF754FFF5E7FFF751FFD8E708B530201A
:1027880005F0C4FA4FF47A70FEF732FD8E21044842
:10279800FFF7AEFFA0F1C400B0FA80F0400908BD11
:1027A800383D002040F080010048A1E7383D002076
:1027B80038B5F020FFF7F6FF0446F120FFF7F2FFE7
:1027C800802C01D0002038BD0328FBD1084B1A7893
:1027D80002B91870074B0849002432251846C1F879
:1027E80034349D712146DC71FFF7CCFB012038BDE4
:1027F8004A3400209C5400200824002010B50C46C0
:10280800FFF7D6FF08230A4823700A4A0A4B0178C3
:102818001268C3F8802413294FF0000283F8842437
:1028280008BF064B4FF0010008BF1A8010BD00BF5B
:102838005C7800205054002008240020687800208C
:1028480070B50546007B0E46FFF748F9424B186005
:1028580018B1052200238271C37123F0BDFB6B7B85
:102868003E4A3F4C003318BF012313701BF026F972
:10287800E87AFFF733F90346206038B127210022B0
:102888008171C2712021FEF771FF2368354C18460B
:10289800FFF766FD344B1870FFF78AFF2B7884F832
:1028A8003134082B2ED01AD30A2B18D82F4BC4F842
:1028B800883014BF4FF4C8734FF4AF634FF0100162
:1028C800A4F88E342A4B31701B682A4AC4F888242D
:1028D80014BF202223225B0584F88D2429D4264B9B
:1028E8001A780AB903221A70244A00231268C4F815
:1028F8009C2484F8A0343222C4F89434C4F8982470
:10290800012070BD1A4A337013681D4A1D49C4F866
:1029180088205A05C4F88814E1D51B4B1A787AB96F
:102928001A4A1B49116002221A70012384F88C3458
:10293800D5E7184D2B782BB1002384F89034CEE7D7
:102948000023F3E7144B154A1A6020F0B7F9022365
:102958002B700123F1E700BFEC3B0020F03B002087
:10296800E03B002008240020E43B0020F507000895
:10297800E85C0020AD3000084A34002050540020A4
:10298800210900080D37000846500020C8450020DE
:10299800BD0A000814500020E44A0020BD080008C1
:1029A800F8B50546806816461F4610B10368828848
:1029B8001A85686840F2E93401E0002C44D00389A4
:1029C800013C13F0020FA4B2F7D0017340F2E931D1
:1029D80001E0002938D00389013913F0010F89B2C9
:1029E800F7D0037B686883894FF0000C4FF47A7145
:1029F8004FF6FF724FF0FF0E674502D11DE091427E
:102A080019D0038901399C0789B2F8D580F80CE000
:102A18004FF47A7102E0A1B291420CD00389DB072E
:102A280001F1FF34F7D5037BDBB20EB13370013609
:102A38000CF1010CE0E7FFF7F1FDAB6813B11A6880
:102A48009B8893610120F8BDFFF7E8FDCAE700BF46
:102A58000B460246FF210148A2E700BF383D00208F
:102A680010B50446FB20FFF79DFE00F07F000E28FE
:102A780001D8002010BD20460F21FFF7E9FF0120F3
:102A880010BD00BFF8B5D94E0546FEF75FFB96F8B6
:102A9800843404460E2B00F2E580DFE813F00F00C3
:102AA800F1000C01E300E300E300E300E300E300CE
:102AB800E30049015701B501D801E500CC4BD6F830
:102AC80080241B689B1A0A2B40F2CC8000251AF040
:102AD800F5FFA6F8A254FFF751FE0121022005F0E8
:102AE8000DF90721032005F009F9D321042005F089
:102AF80005F99121052005F001F90D21062005F0C1
:102B0800FDF80421072005F0F9F80C21082005F04C
:102B1800F5F82921092005F0F1F806210B2005F028
:102B2800EDF896F89310B34C0C2005F0E7F85C210B
:102B38000D2005F0E3F84E210E2005F0DFF8C42142
:102B48000F2005F0DBF87C21102005F0D7F8432191
:102B5800112005F0D3F80321122005F0CFF8232126
:102B6800132005F0CBF83B21142005F0C7F84421C9
:102B7800152005F0C3F80F21172005F0BFF808212C
:102B8800182005F0BBF81D21192005F0B7F86C21B5
:102B98001A2005F0B3F803211B2005F0AFF84021F7
:102BA8001C2005F0ABF891211D2005F0A7F856214F
:102BB800212005F0A3F81021222005F09FF8A92173
:102BC800232005F09BF80A21242005F097F82946D0
:102BD800252005F093F81121262005F08FF85921BA
:102BE800292005F08BF888212C2005F087F8312161
:102BF8002D2005F083F80B212E2005F07FF8FF210A
:102C08003E2005F07BF804F15A071025362005F020
:102C18007DF829460A2005F071F8332005F076F88A
:102C28004FF46170FEF7E4FA2320FFF7BBFD207034
:102C38002420FFF7B7FD60702520FFF7B3FD0334AC
:102C480004F8010C0635BC42EDB2DFD16A4B1A78A4
:102C58000A23132A86F8843404D1684AB6F8A214E1
:102C6800518013800020F8BD11F018FC624B1A78CF
:102C78000023132A86F8843400F084810120F8BDEB
:102C8800FFF778FB002840F0BC81D6F8A434E41A9A
:102C9800002C40F31B814FF4FA701AF0F5FEFEF792
:102CA80057F9D6F8A43403F5F42303F59073C6F85E
:102CB800A4340020F8BDFFF75DFB002840F08081B8
:102CC800D6F8A434E21A002A40F3008196F8B0241A
:102CD80003F5D4531033032AC6F8A43400F0DE8079
:102CE800454B1978132900F04481002A40F0D6801A
:102CF800D6F8AC340133642BC6F8AC3440F2CE803D
:102D08000123132986F8843401D13C4A1380FEF745
:102D18001FF93B4B1B78032B02D13A4B00221A8038
:102D280004F5F42404F59074C6F8A4440020F8BD12
:102D380001201AF085FE002840F0B7802E4B1A7843
:102D48000123132A86F88434E1D1DEE796F930317D
:102D58007D2B07DD284B1B788222132B86F8302128
:102D680000F00281224CD6F82C2123689B1ADC2B18
:102D780000F20C81FFF7FEFA00283FF473AF2846F3
:102D8800FFF76EFE00283FF46DAF00212846FDF7DF
:102D9800DBFE002800F0BE80AB7B03F07F03282B0E
:102DA80040F2B880144F6B783A7886F89130132A3D
:102DB80008BF124A96F93031A97886F8A8344FF03E
:102DC800340008BF938086F8921004F09FFF3A7889
:102DD8002368C6F82C31132A4FF00C0386F8843484
:102DE8007FF440AF054A00201380F8BD0824002076
:102DF80050540020D42400205C78002068780020FB
:102E08004A34002070340020A34C64201AF03CFEA1
:102E18002368D6F82C219B1AB3F55C7F03D896F962
:102E2800A8747A2F64DD236896F83011C6F82C311F
:102E38000C2004F063FF342004F068FF974B1A78E5
:102E48000D23132A86F884347FF40CAFCAE7924F17
:102E580064201AF019FE3B68D6F82C2196F9304107
:102E68009B1AB3F55C7F02D814F17A0F57DA96F9FA
:102E7800A8341A1B022A1ADD884A2344117803EB66
:102E8800D3735B100E22132986F8933086F88424B6
:102E98007FF4E8AE824B00201A80F8BD002486F843
:102EA800B044FEF755F82046F8BD1AF013FEFEF7B9
:102EB80065F87A4B1B780B22132B86F884247FF451
:102EC800D1AE774B0B221A800020F8BD00201AF0F3
:102ED800B7FD00283FF4C6AE704B1B780022132BB9
:102EE80086F884247FF4BEAE6D4B00201880F8BDB0
:102EF800FFF740FA00283FF4B5AE2846FFF7B0FDCB
:102F080000283FF4AFAE28460121FDF71DFE00283A
:102F180040F0B180342004F0F9FE0020F8BDFFF73E
:102F280029FA00283FF49EAE2846FFF799FD0028AD
:102F38003FF498AE28460121FDF706FE0028E9D0A7
:102F4800564A3B681278C6F82C31132AA4F10403B8
:102F5800D9B208BF524A4BB286F8303108BFD38085
:102F68000C2004F0CBFED5E74D4B4FF68272DA8089
:102F7800F8E6B6F8A2344A4801339BB2A6F8A23460
:102F88004380B2E6464A01201380F8BD434A96F8CA
:102F9800301112782368C6F82C31132A01F1100178
:102FA800C9B208BF3E4A4BB24FF00C0086F8303128
:102FB80008BFD38004F0A2FE342004F0A7FED9E6AF
:102FC8002846FFF74DFD00283FF47AAE0121284638
:102FD800FDF7BAFD00289DD02B7B0022C6F8AC2453
:102FE8001A0739D596F8B02404F5FA7442F00202AB
:102FF800C6F8A44486F8B0245B073FF533AE022038
:10300800F8BD2846FFF72CFD00283FF43EAE01210D
:103018002846FDF799FD00283FF47CAF2B7B190764
:103028007FF578AF0023C6F8AC341AF053FD1B4B7C
:103038001A78132A08BF1A4A4FF002034FF0030107
:1030480004F5FA7486F8B01486F8843408BF13803F
:10305800C6F8A4440020F8BD04F6AC543420C6F8E1
:10306800A44404F053FE96F8B0242B7B42F00102EE
:1030780086F8B024C0E7094A23681278C6F82C31CC
:10308800391DC9B24BB2132A86F8A8347FF468AF49
:10309800034A938064E700BF505400205C78002006
:1030A800687800202DE9F04F0B78063B83B00D4679
:1030B8000746042B20D8DFE803F0A2230340700062
:1030C800BB4CFFF757F920B194F8B864002E00F014
:1030D800128194F8C034D4F8B464002B40F0B7805F
:1030E800FEF734F8D4F8982442F22833801B03FB07
:1030F80002F38342C0F29680002003B0BDE8F08F4F
:10310800FEF724F8AA4C00260822C4F8B40441F2B9
:10311800B4432A703046C4F8BC3484F8B8641AF052
:103128008FFC0028CDD03223C4F8B464C4F894646A
:103138002E703046C4F89834DFE79D4CFEF706F849
:10314800B4F88E24D4F8BC14D4F8B4340A44C01AA1
:103158008242D1DC362004F0D9FD23F07DFE3A20EE
:1031680004F0D4FD1E20FEF743F8362004F0CEFD0F
:1031780094F8EC140131C9B204F2EC40FDF794FF65
:1031880094F89034002B40F0FD8094F8B8340A226B
:103198002A70002BB0D00220AFE7854EFDF7D6FF8E
:1031A800D6F8BC24D6F8B43402F67462C01A824247
:1031B800A2DAFDF7CBFF7F4FC6F8B40441F2B4435F
:1031C8007878C6F8BC34002486F8B844FDF7FAFECF
:1031D800342004F09BFDD6F89434642B00F2C780A9
:1031E800754A1278122A08BF744A03F1010308BF0E
:1031F8005380C6F8943408232B7000207DE76C4B6D
:103208002F22002083F83221FDF72CFF07232B7093
:103218000120FDF7D7FE342004F078FD002003B02C
:10322800BDE8F08F664B1868FFF726F8654B1B78EA
:10323800032B02D1644B00221A800120FDF7C2FE45
:10324800342004F063FD07232B70002055E7FDF7B9
:103258007DFFD4F8BC34801B8342BFF641AF0923FD
:103268002B7094F8913084F8ED3494F8922084F817
:10327800EE240E2384F8EC3494F80015FB7884F8D7
:10328800EF34002940F0488194F8C720002A00F064
:103298003A814E484E4A007B32F81020C2F346125B
:1032A80084F8F0247A7D81F0010184F80015110773
:1032B80040F196808821002284F8F11484F80125D1
:1032C8004448DFF818C100F10907002101E010F8AF
:1032D800013F83EA11220CEB42028742B2F86030C8
:1032E80083EA01231BB299B2F1D1090A84F8F914CF
:1032F80084F8FA34F4E6FB20FFF754FA94F88D9436
:1033080000F07F0081453FF6E4AE49463846FFF7B6
:103318009FFBA9F1070313F0FF0307F1030200F075
:10332800AC810333DFF8B4C0F91812F8013B83EA23
:1033380016230CEB43038A42B3F8603083EA06266F
:10334800B6B2F2D1330A07EB090212F8041C99420B
:1033580000F0E980184AD4F8283512780133122A87
:10336800C4F828357FF4B5AE144A9380B1E6322309
:103378000122C6F89834072386F8C04420463A70DC
:103388002B70BAE6144AD4F820351268D31A0020F4
:10339800182B8DF8070071D902AF012307F8013DFA
:1033A800C4F82025394600221FF060F8EDE600BF7A
:1033B80008240020000000205C78002068780020A5
:1033C800EC3B00204A340020703400208C5500204B
:1033D800B4550020F7280020505400202415030875
:1033E800C2F3011112F0400240F03181481C94F8F8
:1033F800011500F0030081423FF462AF94F8E074D5
:1034080094F81C3594F80080B64807F0F00761F38B
:10341800010784F8F17443455FFA82FE04EB030C5C
:1034280003F1010702F1010200F029819CF8043040
:1034380000F8013B052A07F03F03ECD184F81C355E
:103448009646A94884F8F2E4844601EB41074A1CF1
:1034580079005CF812ED40F801E0574207F00307E5
:10346800084402F00302BCF804C094F8EF34A0F852
:1034780004C058BF7A4284F8012521E794F8E894FB
:10348800DFF87C8209F1010909F003094FEAC90A4A
:1034980083460DF10707AAEB0906264496F8CA34B5
:1034A800002B3FF47FAF00287FF47CAF96F8C4244C
:1034B80094F82435934202D313E00028EBD1F21894
:1034C8003946002392F8C50442461FF009FD94F8D6
:1034D800243596F8C4240133DBB2934284F82435AA
:1034E800EBD39A42D7D1AAEB090AA24409F1010306
:1034F80084F8E89403F003098AF8CAB484F824B578
:103508004FEAC90AC7E7794A794812880532A0FB09
:103518000202C2F3C602C3E694F88C2062F07F026E
:1035280084F8F024BEE612F8033CF6B2B3427FF406
:1035380011AF3B78A9F103094B457FF40BAF7A78BB
:1035480094F891309A427FF405AFBA7894F89230A3
:103558009A427FF4FFAE94F8C62022B1BB7913B12A
:103568009A427FF4F7AE00230122C4F89434C4F8D9
:10357800BC34C4F898241AF0ADFA5E4A13789BB1AB
:103588007B79387994F832119B00DBB2884253700A
:1035980005D301F13F06864274DB013353700121E4
:1035A800002384F8C014137094F88D343B443E46CD
:1035B80013F8020CFDF792FA7A7D4F4956F8160F68
:1035C80094F8E1C402F00302C2EBC203C850C81861
:1035D800E1180CF10103B688868003F00303012685
:1035E80000209A4281F8CA6484F8E0041ED01E467E
:1035F80003E00EF00306B24218D0C6EBC601214420
:1036080006F1010E91F8CA040028F2D194F8E024DA
:10361800D4F8E41466F30512D2B242F04002013144
:10362800560684F8E024C4F8E41438D40022C4F818
:10363800E424C3EBC3022244591C92F8CA24002A8A
:1036480046D09C4544D0984601F00303F1E72B4F40
:1036580094F8E02401EB410C07F1120000EB4C0058
:1036680002F0F002D0F800C08088C4F8F2C461F318
:103678000102B88084F8F12422E61E4663E684F845
:103688001C35DEE601F17F06B04202DC02335370DE
:1036980085E7BF318842DCBF033353707FE70429D5
:1036A8000ED9032384F8CA0484F8D10484F8D80412
:1036B80084F8DF04C4F8E40484F8E83484F8E134D6
:1036C800FDF744FD0123C4F8B40484F8B83400E5D8
:1036D80094F8E03484F8E18468F3051384F8E0345E
:1036E800EEE700BFFB2800200C290020B44F002083
:1036F800CDCCCCCC00000020CC280020FA2800201B
:10370800F10700082DE9F0410C4682B00546FDF7A7
:103718001DFD2378063B0746032B49D8DFE803F055
:103728004D2A023EB54EFEF725FE002859D1002548
:10373800D6F89814D6F82C3542F2283202FB01F25A
:10374800FF1ABA4249DA01296DD1D6F89434642BAC
:1037580003F1010200F2A0800120C6F89424FDF7CD
:1037680031FC342004F0D2FA07232846237002B033
:10377800BDE8F081A14E082323700020C6F82C75FF
:103788001AF05EF90028CED000253223C6F82C5551
:10379800C6F894542570C6F898341EE0974DFDF786
:1037A800D5FCD5F83035C01A40F2635398425ADC3C
:1037B8000025284602B0BDE8F081904B2F2200205A
:1037C80083F83221FDF74EFC072323700120FDF713
:1037D800F9FB342004F09AFA0025284602B0BDE827
:1037E800F081FB20FEF7DEFF00F07F0013289ED952
:1037F80014212846FFF72CF995F91330002B96DA97
:103808002B7800220120112BC6F89424C6F89804BE
:103818004ED0D6F82C2542F22833BF1A9F42C7DD76
:103828000025012298E7764B1868FEF725FD754BB1
:103838001B78032B13D1744F744E3A78744836F8BA
:1038480012C00368511C01F00F0139700021A3EB6D
:103858000C0326F812106F4A03601B0913800D2011
:10386800FDF7B0FB7DE7362004F050FA23F0F4FAB8
:103878003A2004F04BFA362004F048FA95F8381547
:10388800013105F5A760C9B2FDF70EFC0823C5F89C
:103898002C7523700225A0E75A4B1B783221032B85
:1038A800C6F898147FF458AF5A4B0021198053E793
:1038B8006A7896F891309A42ABD1AA7896F8923005
:1038C8009A42A6D101901AF005F90198FDF77AFB02
:1038D800A87CFDF703F9EB7803F00303022B08D06B
:1038E800342004F013FA07232370C6F82C75022538
:1038F8001EE7FDF72BFC96F8C730C6F8300573B302
:103908004549464A0B7B32F81330C3F30713497C09
:10391800287932F8111096F88C2496F8915086F888
:103928003B35090986F83C154FF0110C96F89210B2
:10393800B6F88C3086F8340586F838C586F83955D7
:1039480086F83A1586F83D3592B9134686F83E351D
:1039580096F8342586F83F2509232370C5E7304BB0
:103968002D491B882D4A0520B3FBF0F3DBB2CEE7C7
:1039780096F84C3596F84620834223D096F84D3574
:1039880086F84E3596F84E1596F84600254D0022D5
:1039980005E09EF848308CF808300A2A2AD001F150
:1039A8000108884206EB010E05EB020CD3B208F0C1
:1039B8003F0102F10102ECD1002286F84E0586F89B
:1039C8004620C3E7013303F01F0396F84E1586F827
:1039D8004C3586F84D15002AD4D186F84E25FDF7CA
:1039E800B5FB114B114A1B68C31A9342CADD1FF07D
:1039F800EDFAC7E786F84E151346A7E70824002016
:103A0800EC3B00204A3400204B3400204C3400208A
:103A18006C340020703400208C550020B4550020F0
:103A2800B44F0020402900202C50002047E8010016
:103A38002DE9F041B74E96F8A0340446052B00F264
:103A4800CE80DFE803F01924338DC00396F8903058
:103A5800002B00F02382B04D50242868FEF70CFCA0
:103A680022F006FA631E13F0FF04F6D1062386F847
:103A7800A0340120BDE8F081A84BD6F89C241B682F
:103A88009B1A0A2B00F24E810020BDE8F08101202C
:103A980019F0D6FF002840F0A88096F8900000287A
:103AA80040F0A380062386F8A034EEE796F9543553
:103AB8009A4AD6F850157D2BC4BF822386F8543510
:103AC80013685B1A322B00F21681FEF753FC0028AC
:103AD800DAD0FB20FEF766FE10F07F05D4D0294629
:103AE80025442046FEF7B4FF15F8013C1A06CBD54D
:103AF800A578012DC8D103F07F03312BC4D896F8DF
:103B0800543586F89330362004F000F996F83411CD
:103B1800232004F0F3F896F83511242004F0EEF889
:103B280096F83611252004F0E9F800210A2004F05F
:103B3800E5F83A2004F0EAF81420FDF759FB3420A0
:103B480004F0E4F800240523284686F8553586F85D
:103B58003241FDF787FA0323204686F8A03494E71C
:103B6800FEF708FC00288FD0FB20FEF71BFE10F0A4
:103B78007F0589D0294625442046FEF769FF15F9B7
:103B8800013C002B80DAA378012B7FF47DAF6079AC
:103B980000287FF479AFE278237986F891206FF0D6
:103BA800040186F89230091B621D04F10A058B187E
:103BB800034412F8010F3344AA4283F8940000F03A
:103BC80093806079F3E796F85555782D47D93620D4
:103BD80004F09CF8052386F8A034002055E7D6F8B1
:103BE80088344F49BDE8F041184719F073FF142194
:103BF800192004F083F8494A82231946126886F886
:103C080054350C20C6F8502504F078F80C2107200C
:103C180004F074F80821182004F070F8362004F035
:103C280075F896F83411232004F068F896F83511E1
:103C3800242004F063F896F83611252004F05EF885
:103C480000210A2004F05AF83A2004F05FF83420E2
:103C580004F05CF8022386F8A034002015E7FEF78C
:103C680089FB00283FF410AFFB20FEF79BFD10F006
:103C78007F073FF409AF394627442046FEF7E8FEA0
:103C880017F9013C002BBFF6FFAEA378012B7FF498
:103C9800FBAEE27896F891309A427FF4F5AE22793D
:103CA80096F892309A427FF4EFAE6279AA427FF496
:103CB800EBAE04F1050E00231EF801CF17F8038CB4
:103CC800F018E045D9B2104403F1010302D0BCF169
:103CD800000F02D12C2D00F23681052B80F894C0FC
:103CE80000F035816279E7E7237B86F8C630042344
:103CF80086F8A034C8E696F854351268C6F85025F8
:103D08000533DBB219460C2086F8543503F0F6FF6C
:103D1800DBE600BF08240020EC3B002050540020C4
:103D2800A8280020FEF72AFD0121022003F0E6FF63
:103D38001821084603F0E2FF0421072003F0DEFF04
:103D4800FF213E2003F0DAFF00210C2003F0D6FF0C
:103D58005C210D2003F0D2FF2321132003F0CEFFB6
:103D68007A21142003F0CAFF1621192003F0C6FF98
:103D78006C211A2003F0C2FF03211B2003F0BEFFB1
:103D880040211C2003F0BAFF91211D2003F0B6FF4B
:103D98005621212003F0B2FF1021222003F0AEFFAC
:103DA800A921232003F0AAFF0A21242003F0A6FF5B
:103DB8000021252003F0A2FF1121262003F09EFFF9
:103DC8005921292003F09AFF88212C2003F096FF1F
:103DD80031212D2003F092FF0B212E2003F08EFFBE
:103DE8000721032003F08AFF0021092003F086FF42
:103DF80096F83144092C7DD00A2C52D0082C27D1B2
:103E08000C21172003F07AFF76210E2003F076FFAD
:103E180027210F2003F072FF1921062003F06EFFFF
:103E28000521204603F06AFF21460B2003F066FFB8
:103E3800AA21102003F062FF3921112003F05EFF50
:103E48001121122003F05AFF4221152003F056FFDA
:103E5800414C0025362003F059FFE9B20A2003F04F
:103E68004DFF332003F052FF4FF46170FDF7C0F9A6
:103E78002320FEF797FC20702420FEF793FC607047
:103E88002520FEF78FFC0135FF2DA07004F10304F7
:103E9800E0D1012386F8A0340020F6E510F0FEFA00
:103EA800E4E50E21172003F029FF80210E2003F0FE
:103EB80025FF00210F2003F021FF2321062003F016
:103EC8001DFF0121082003F019FF08210B2003F032
:103ED80015FF7B21102003F011FFF821112003F0BA
:103EE8000DFF0321122003F009FF5321152003F0D1
:103EF80005FFADE70C21172003F000FF76210E2007
:103F080003F0FCFE27210F2003F0F8FE1E210620F7
:103F180003F0F4FE0121082003F0F0FE0A210B2033
:103F280003F0ECFE7B21102003F0E8FE6121112054
:103F380003F0E4FE1321122003F0E0FE51211520C6
:103F480003F0DCFE84E70A4486F832213FE60535B3
:103F580086F85555002098E53C25002038B583683B
:103F68000446154613B11A689B881385606840F2A9
:103F7800E93300E07BB30289013B12F0020F9BB2E8
:103F8800F8D0017340F2E93300E023B30289013B22
:103F980012F0010F9BB2F8D0037B606840F2E9335E
:103FA80000E0DBB10189013B11F0020F9BB2F8D0B0
:103FB800057340F2E93300E083B10289013B12F056
:103FC800010F9BB2F8D0037BA36813B11A689B88D2
:103FD8009361012038BDFEF721FBDEE7FEF71EFBEB
:103FE800F2E700BF836810B5044613B11A689B88CE
:103FF8001385606840F2E93300E0BBB10289013BF8
:1040080012F0020F9BB2F8D0017340F2E93300E0DE
:1040180063B10289013B12F0010F9BB2F8D0037B18
:10402800A36813B11A689B88936110BDFEF7F6FA6E
:10403800F6E700BF2DE9F04F87B0034602904068CD
:104048009A68038823F040031B041B0C0380038831
:104058009BB223F0380343F038030380038843F00E
:104068004003038012B1136892881A8540F2E9333D
:1040780002E0002B00F07F810289013B12F0020F61
:104088009BB2F6D06B23037340F2E93302E0002BB6
:1040980000F071810289013B12F0010F9BB2F6D04A
:1040A800037B029B586840F2E93302E0002B00F0E2
:1040B8005F810289013B12F0020F9BB2F6D0802388
:1040C800037340F2E93302E0002B00F051810289CA
:1040D800013B12F0010F9BB2F6D0037B029B9B6859
:1040E80013B11A689B8893610623A44CDFF8988261
:1040F800DFF898A2A24DA34E04939623DFF890C24E
:1041080001934FF0100EDAF80430C3F30803002BC4
:1041180040F0B380EFF31183002B40F0AE802068AD
:10412800AA6823689842FAD133689A42F7D8D8F82F
:1041380000704FF47A7101FB07F39B1AB3FBF7F396
:1041480001FB00304FF47A774FF00109DAF80430B8
:10415800C3F30803002B71D1EFF31183002B6DD14A
:104168002368A96822689342FAD132689142F7D845
:10417800D8F8002007FB02FBABEB0101B1FBF2F121
:1041880007FB03131B1AB3F57A7FDFD3019B013BAF
:104198000193B8D1029B9B6813B11A689B88138559
:1041A800029B586840F2E93302E0002B00F0878058
:1041B8000289013B12F0020F9BB2F6D0F52303737C
:1041C80040F2E93301E0002B79D00289013B12F07B
:1041D800010F9BB2F7D0037B029B5868838940F29A
:1041E800E93301E0002B67D00289013B12F0020F8E
:1041F8009BB2F7D0FF23037340F2E93301E0002BB1
:104208005AD00289013B12F0010F9BB2F7D0037B11
:10421800DBB20393029B9A6812B113689188996183
:10422800039B682B4ED0049B013B13F0FF030493C0
:104238007FF463AF184607B0BDE8F08FEFF3118144
:104248008EF31288D5F808B02B68DB0344BFCCF88E
:104258000090D5F808B02368DCF80020C9B281F3D3
:104268001188D8F80010134407FB01F2A2EB0B02E7
:10427800B2FBF1F207FB032384E7EFF311838EF31C
:104288001288AF682A68D20303D50122CCF800202F
:10429800AF682068DCF80090DBB283F31188D8F8A7
:1042A80000104FF47A72484402FB01F3DB1BB3FBA6
:1042B800F1F302FB003045E7FEF7B0F9AAE7FEF795
:1042C800ADF989E712B1136892881A85029B58687C
:1042D80040F2E93301E0002B47D00289013B12F09C
:1042E800020F9BB2F7D08C23037340F2E93301E04D
:1042F800002B3AD00289013B12F0010F9BB2F7D094
:10430800037B029B5868838940F2E9330289013BA9
:1043180012F0020F9BB215D1002BF7D1FEF77EF9F0
:10432800029B9B6813B11A689B889361059B142BA9
:1043380004D3182B17D9543B062B14D9002007B0E7
:10434800BDE8F08FFF23037340F2E93301E0002B4F
:10435800E4D00289013B12F0010F9BB2F7D0037B36
:10436800DBB20593DCE7032065E7FEF757F9C8E7FA
:10437800FEF754F9B2E6FEF751F992E650540020E0
:1043880010E000E0585400205454002000ED00E0F4
:104398004C5400202DE9F04F90F8613087B0054665
:1043A800002B40F0F284AD4E96F85625D5E905036A
:1043B800002A00F0A281028822F040021204120CA6
:1043C8000280028892B222F0380242F0380202805B
:1043D800028842F04002028095F85B20032A6BD8DD
:1043E80095F85E10A1F10101B1FA81F1490913B103
:1043F8001A689B88138540F2E93302E0002B00F02D
:10440800A5850289013B12F0020F9BB2F6D01A2350
:10441800037300F10C0240F2E93302E0002B00F0D4
:1044280095850489013B14F0010F9BB2F6D01378EF
:10443800686940F2E93302E0002B00F0B98602898E
:10444800013B12F0020F9BB2F6D0017340F2E93340
:1044580002E0002B00F0AC860289013B12F0010F4C
:104468009BB2F6D0037BAB6913B11A689B88936142
:10447800FCF76CFE0446FCF769FE8442FBD06869D1
:10448800038823F040031B041B0C0380038823F0DC
:1044980038031B041B0C0380038843F0400303808C
:1044A8002B7C022B00F0C380B5F952305BB201338C
:1044B80004D007B0BDE8F08F002198E795F9503097
:1044C8000133F6D10A23664CDFF8B0A1654F664D7B
:1044D800664E019322F090F94FF4FA73DFF8A0E1E9
:1044E80000934FF010087B68C3F30803002B40F0DB
:1044F8003C86EFF31183002B40F037862068AA68CA
:1045080023689842FAD133689A42F7D8DAF800C09B
:104518004FF47A7101FB0CF39B1AB3FBFCF301FB1C
:1045280000304FF47A7C4FF001097B68C3F308032D
:10453800002B40F0D785EFF31183002B40F0D28594
:104548002368A96822689342FAD132689142F7D861
:10455800DAF800200CFB02FBABEB0101B1FBF2F136
:104568000CFB03131B1AB3F57A7FDED3009B013BC8
:104578000093B8D1072021F0ABFF4FF47A73DFF82E
:1045880000E100934FF010087B68C3F30803002B89
:1045980040F0C885EFF31183002B40F0C3852068F5
:1045A800AA6823689842FAD133689A42F7D8DAF8A9
:1045B80000C04FF47A7101FB0CF39B1AB3FBFCF3B8
:1045C80001FB00304FF47A7C4FF001097B68C3F39C
:1045D8000803002B40F05185EFF31183002B40F0C6
:1045E8004C852368A96822689342FAD132689142BF
:1045F800F7D8DAF800200CFB02FBABEB0101B1FBAA
:10460800F2F10CFB03131B1AB3F57A7FDED3009B80
:10461800013B0093B8D1019B013B01937FF45AAF52
:104628001349104B1348144A0860DA6041E7AB6934
:1046380013B11A689B88138540F2E93302E0002B16
:1046480000F008850289013B12F0020F9BB2F6D0F8
:10465800C323037340F2E93317E000BF08240020A6
:104668005054002000ED00E010E000E05854002015
:10467800FC9F0020EFBEADDE0400FA055454002074
:104688004C540020002B00F0E5840289013B12F015
:10469800010F9BB2F6D0037B6869838903899B0766
:1046A8004FF0050404AA4FF47A714FF0FF074FF654
:1046B800FF7608D44B1E9BB2002900F025841946CA
:1046C80003899B07F6D507734FF47A7303E08BB21F
:1046D800B34200F01984B0F808C01CF0010F03F1D0
:1046E800FF31F4D0017BC9B20AB111700132002C3C
:1046F80000F00C84013C1946E2E7028822F04002EF
:104708001204120C0280028892B222F0380242F09F
:1047180038020280028842F04002028013B11A680F
:104728009B88138540F2E93302E0002B00F08E8469
:104738000289013B12F0020F9BB2F6D06B23037380
:1047480000F10C0240F2E93302E0002B00F07E8415
:104758000189013B11F0010F9BB2F6D0137868690B
:1047680040F2E93302E0002B00F06C840289013B3F
:1047780012F0020F9BB2F6D08023037340F2E933A4
:1047880002E0002B00F05E840289013B12F0010F69
:104798009BB2F6D0037BAB6913B11A689B8893610F
:1047A800A94CDFF8B0A2A94FDFF8AC92DFF8AC82D1
:1047B8004FF0960BFCF7CAFC4FF47A7CA44B5B686D
:1047C800C3F30803002B40F0C583EFF31183002BDC
:1047D80040F0C0832368B96822689342FAD1D8F8B8
:1047E80000209142F6D8DAF800E00CFB0EF2521ADB
:1047F800B2FBFEF20CFB03231B1AB3F57A7FDDD361
:10480800BBF1010BD6D1AB6913B11A689B8813852C
:10481800686940F2E93302E0002B00F0FE83028968
:10482800013B12F0020F9BB2F6D06823037340F2EB
:10483800E93302E0002B00F0F0830289013B12F01B
:10484800010F9BB2F6D0037B686940F2E93302E0BE
:10485800002B00F0E5830289013B12F0020F9BB2A6
:10486800F6D00323037340F2E93302E0002B00F093
:10487800D7830289013B12F0010F9BB2F6D0037B6C
:10488800AB6913B11A689B889361704FDFF8C891C0
:10489800DFF8C8814FF0960BFCF758FC4FF47A7C90
:1048A8006B4B5B68C3F30803002B40F07483EFF392
:1048B8001183002B40F06F832368B9682268934204
:1048C800FAD1D8F800209142F6D8DAF800E00CFBCB
:1048D8000EF2521AB2FBFEF20CFB03231B1AB3F5BD
:1048E8007A7FDDD3BBF1010BD6D1AB6913B11A685E
:1048F8009B881385686940F2E93302E0002B00F0D9
:104908006B830289013B12F0020F9BB2F6D06B2336
:10491800037340F2E93302E0002B00F05D83028963
:10492800013B12F0010F9BB2F6D0037B686940F29D
:10493800E93302E0002B00F076830289013B12F094
:10494800020F9BB2F6D00323037340F2E93302E06F
:10495800002B00F068830289013B12F0010F9BB223
:10496800F6D0037BAB6913B11A689B8893610F205B
:10497800FCF73EFCAB6913B11A689B88138568691C
:1049880040F2E93302E0002B00F050830289013B3A
:1049980012F0020F9BB2F6D06A23037340F2E93398
:1049A80002E0002B00F042830289013B12F0010F64
:1049B8009BB2F6D0037B686940F2E93302E0002B32
:1049C80000F037830289013B12F0020F9BB2F6D048
:1049D8001023037340F2E93302E0002B00F029832F
:1049E8000289013B12F0010F9BB2F6D0037BAB6941
:1049F80013B11A689B8893610F20FCF7F9FBAB6928
:104A080013B11A689B881385686940F2E93302E09C
:104A1800002B00F011830289013B12F0020F9BB2B8
:104A2800F6D06C23037340F2E93302E0002B00F068
:104A380003830289013B12F0010F9BB2F6D0037B7E
:104A4800686940F2E9330EE05054002010E000E0BD
:104A580000ED00E0545400204C540020585400202D
:104A6800002B00F0BC820289013B12F0020F9BB2BE
:104A7800F6D00023037340F2E93302E0002B00F084
:104A8800AE820289013B12F0010F9BB2F6D0037B84
:104A9800AB6913B11A689B8893610F20FCF7A8FBD8
:104AA800AB6995F8601013B11A689B88138568691B
:104AB80040F2E93302E0002B00F094820289013BC6
:104AC80012F0020F9BB2F6D01923037340F2E933B8
:104AD80002E0002B00F086820289013B12F0010FF0
:104AE8009BB2F6D0037B686940F2E93302E0002B01
:104AF80000F07B820289013B12F0020F9BB2F6D0D4
:104B0800017340F2E93302E0002B00F06E82028963
:104B1800013B12F0010F9BB2F6D0037BAB6913B1D6
:104B28001A689B8893610F20FCF762FBAB6913B18D
:104B38001A689B881385686940F2E93302E0002B04
:104B480000F056820289013B12F0020F9BB2F6D0A8
:104B58001B23037340F2E93302E0002B00F0488284
:104B68000289013B12F0010F9BB2F6D0037B686902
:104B780040F2E93302E0002B00F03D820289013B5C
:104B880012F0020F9BB2F6D01823037340F2E933F8
:104B980002E0002B00F02F820289013B12F0010F86
:104BA8009BB2F6D0037BAB6913B11A689B889361FB
:104BB8000F20FCF71DFBAB6913B11A689B8813859E
:104BC800686940F2E93302E0002B00F0178202899D
:104BD800013B12F0020F9BB2F6D01C23037340F284
:104BE800E93302E0002B00F009820289013B12F050
:104BF800010F9BB2F6D0037B686940F2E93302E00B
:104C0800002B00F0FE810289013B12F0020F9BB2DB
:104C1800F6D01823037340F2E93302E0002B00F0CA
:104C2800F0810289013B12F0010F9BB2F6D0037BA1
:104C3800AB6913B11A689B8893610F20FCF7D8FA07
:104C4800AB6913B11A689B881385686940F2E93328
:104C580002E0002B00F0D8810289013B12F0020F1C
:104C68009BB2F6D03723037340F2E93302E0002BFE
:104C780000F0CA810289013B12F0010F9BB2F6D005
:104C8800037B686940F2E93302E0002B00F0BF8142
:104C98000289013B12F0020F9BB2F6D01023037376
:104CA80040F2E93302E0002B00F0B1810289013BB8
:104CB80012F0010F9BB2F6D0037BAB6913B11A68EF
:104CC8009B8893610F20FCF793FAAB6913B11A68BC
:104CD8009B881385686940F2E93302E0002B00F0F5
:104CE80099810289013B12F0020F9BB2F6D038235A
:104CF800037340F2E93302E0002B00F08B81028954
:104D0800013B12F0010F9BB2F6D0037B686940F2B9
:104D1800E93302E0002B00F092810289013B12F096
:104D2800020F9BB2F6D00123037340F2E93302E08D
:104D3800002B00F084810289013B12F0010F9BB225
:104D4800F6D0037BAB6913B11A689B8893610F2077
:104D5800FCF74EFA6A69138823F040031B041B0C06
:104D68001380138823F038031B041B0C138013884B
:104D780043F0400313800120FCF73AFA0122D5E9F9
:104D8800050386F85625FFF716BB1C09013C052CC0
:104D980003F00F0300F26C81C84A32F8140040FA9D
:104DA80003F2D60740F164814FF0010808FA03F3D3
:104DB800013B18402BF090FFC14BDFF81CB313F8F0
:104DC80004A082441BEBCA0400F05281B4F804C06A
:104DD800BC4A2021BCFA8CF3A171C3F11F03002146
:104DE800E171591CEA603FF4DEAA5BF83A00DFF88B
:104DF800ECE2B54FB54E00F13842920AF9181EF8A8
:104E0800022091F8609206EB830102F01F03520919
:104E180005F10C0E022A08FA03F3C1F838E400F091
:104E28002281032A00F01A81012A03D1A8494A697C
:104E380013434B6104A94FF00008CDE904C81CF0E6
:104E4800B5FCA3885BF83A10DFF894C2B3FA83F391
:104E5800C3F11F03D8B200F0FC0202F1804202F550
:104E6800803200F0030080004FF00F0E0EFA00FAB7
:104E7800D2F808E02EEA0A0EC2F808E0D2F808A034
:104E8800C1F38721814041EA0A01916003F01F0EB6
:104E980023F01F014FF0010A0AFA0EFE41F80CE058
:104EA800082204A804938DF815208DF814808DF835
:104EB80016A021F09BFA06EB090393F87824F02A50
:104EC80011D94F44F02197F870228DF80C2003A8CF
:104ED80003228DF80E808DF80FA083F878148DF8D2
:104EE8000D201CF0F3F8A388B3FA83F3C3F11F0372
:104EF8005A1C3FF459AA77490122086802FA03F3B9
:104F080003430B60FFF750BAFDF788FBAB6913B199
:104F18001A689B8893619DF812609DF813309DF87C
:104F280010409DF811109DF814009DF8152043EAD3
:104F380006231BB241EA042142EA0022A5F85230B6
:104F4800A5F85010A5F85420FFF7B0BAFDF766FB96
:104F5800FFF76EBAEFF31181102383F31288D7F8A5
:104F680008E03B68DB0304D50123C9F80030D7F813
:104F780008E02368D9F80020C9B281F31188DAF86B
:104F8800001013440CFB01F2A2EB0E02B2FBF1F28B
:104F98000CFB032330E4EFF31181102383F3128811
:104FA800D7F808E03B68DA0304D50123C9F80030D4
:104FB800D7F808E02368D9F80020C9B281F311882E
:104FC800DAF8001013440CFB01F2A2EB0E02B2FB5C
:104FD800F1F20CFB032381E4FDF720FBA6E4FDF7C7
:104FE8001DFB55E5FDF71AFB7DE5FDF717FB95E57C
:104FF800FDF714FBBBE5FDF711FBD4E5FDF70EFB50
:10500800FAE5FDF70BFB13E6FDF708FB39E6FDF7BC
:1050180005FB52E6FDF702FB78E6FDF7FFFA13E41D
:10502800FDF7FCFA2CE4FDF7F9FA9BE4FDF7F6FA34
:10503800C1E4FDF7F3FADAE4FDF7F0FA00E5FDF76D
:10504800EDFA7FE6FDF7EAFAFFF7A5BBFDF7E6FA0A
:10505800FFF785BBFDF7E2FAFFF71EBB1C4AD169D3
:105068000B43D361E6E61A498A6913438B61E1E68B
:10507800144BEB60154E00233DE7EFF3118188F3E5
:105088001288D5F808B02B68DB0344BFCEF800902F
:10509800D5F808B02368DEF80020C9B281F311887A
:1050A800DAF8001013440CFB01F2A2EB0B02B2FB7E
:1050B800F1F20CFB0323FFF7A6BA00BFD4410308A3
:1050C800E0410308B50B0008241503080824002054
:1050D80000100240000401405C540020D040030846
:1050E80014040140EFF3118188F31288D5F808B051
:1050F8002B68DB0344BFCEF80090D5F808B02368CE
:10510800DEF80020C9B281F31188DAF800101344E0
:105118000CFB01F2A2EB0B02B2FBF1F20CFB032336
:10512800FFF720BAEFF3118388F31288D5F808C087
:105138002A68D20304D50122CEF80020D5F808C089
:105148002068DEF80090DBB283F31188DAF80010EB
:105158004FF47A72484402FB01F3A3EB0C03B3FB50
:10516800F1F302FB0030FFF72DBAEFF3118388F358
:105178001288D5F808C02A68D20304D50122CEF8CF
:105188000020D5F808C02068DEF80090DBB283F371
:105198001188DAF800104FF47A72484402FB01F3E0
:1051A800A3EB0C03B3FBF1F302FB0030FFF7B9B933
:1051B800FDF734FAFFF757B9F0B5836983B00646AF
:1051C80013B11A689B8813857069DFF8A0C08389BA
:1051D800C3244FF47A7306276D464FF6FF710CF11E
:1051E800010C03E0013B9BB28B421CD00289920761
:1051F800F8D504734FF47A7302E0A3B28B4212D04D
:105208000289D20703F1FF34F7D5027BD2B20DB180
:105218002A7001354FB1013FFF24BCF1000FE5D0E2
:105228009CF80040DBE7FDF7F9F9B36913B11A6898
:105238009B8893619DF805009DF801509DF8021028
:105248009DF803409DF804209DF8063041EA0521A9
:1052580043EA002342EA04220120A6F85010A6F8E7
:105268005220A6F8543003B0F0BD00BF9C170308C5
:10527800037B022B01D000207047F0B5436983B04F
:1052880013B11A689B881385014640F2E933006917
:1052980001E0002B5ED00289013B12F0020F9BB2A5
:1052A800F7D0BB23037340F2E93301E0002B51D060
:1052B8000289013B12F0010F9BB2F7D0037B08690A
:1052C800838903899C074FF005076E464FF47A726D
:1052D8004FF0FF0C4FF6FF7506D4531E9BB2D2B1A8
:1052E8001A4603899C07F8D580F80CC04FF47A73E6
:1052F80002E0A3B2AB420ED00289D20703F1FF3419
:10530800F7D5027BD2B20EB1327001367A1E27B1C0
:1053180017461A46E5E7FDF781F94B6913B11A6894
:105328009B8893619DF800609DF801009DF80250EC
:105338009DF803209DF804409DF8053040EA0620BA
:1053480042EA052243EA0423488301208A83CB8367
:1053580003B0F0BDFDF762F9B1E700BF427A4AB188
:1053680010B5044604F10A01D0E90030984700233B
:10537800637210BD704700BF437A5A1C0344D2B20F
:1053880042729972037A93420AD84AB110B5044618
:1053980004F10A01D0E9003098470023637210BD78
:1053A800704700BFA8B10D4B012210B402FA01F1F9
:1053B80003F1750402E00333A3420BD013F8012C68
:1053C8008242F8D11A780A42F5D001205DF8044BE0
:1053D8007047704700205DF8044B7047A517030815
:1053E80030B40A4D002305F5207401E0272B0AD0BC
:1053F80003EB43020133A15C8142F7D12A4430BC5C
:1054080092F882027047002030BC704724150308C8
:10541800024A136823EA000010607047E85C002025
:105428002DE9F341056906460F467DBBD0F800809B
:10543800C8F30A0323B30023D6F80080019321F0B0
:105448000FFD042819D1224C236943F0010323617D
:10545800BBB2A8F8003021F003FD04282ED108F1D2
:1054680002030193019B3F0C1F8021F0F9FC236983
:10547800042823F00103236125D06FF0010505E01E
:1054880021F0EEFC042805D04FF0FF35284602B085
:10549800BDE8F0810E4C236943F002032361C4F890
:1054A8001480236943F04003236121F0D9FC236968
:1054B800042823F002032361BDD0E5E7236923F024
:1054C80001032361D9E7336804333360DEE700BFA3
:1054D80000200240F8B504460D468E180027B54254
:1054E80001D12069F8BDE368591CE160234415F82F
:1054F800012B1A720429F2D1A1682046FFF790FF08
:10550800C4E90370EBE700BF0378202B024600F1E3
:105518000100F9D0092BF7D02D2B00F0A4802B2BFC
:1055280003BF5378B7EE000A0246B7EE000AA3F1AC
:105538003001C8B209289FED577A10D8F2EE046AF4
:1055480007EE901AF8EEE77A12F8013FE7EE267AAE
:10555800A3F13001C8B20928B0EE677AF0D92E2B32
:1055680063D003F0DF03452B02D020EE070A704713
:1055780010B451782D294FD02B2979D0A1F13003BF
:10558800092B02F101027AD80024002303EB8303DC
:1055980001EB430312F8011FA1F130000928A3F120
:1055A8003003F3D9B3F59A7F1A4628BF4FF49A729D
:1055B800072B6CD9DFED386A1346F7EE007A083B03
:1055C800072B67EEA67AFAD802F00702DAB1F2EEF4
:1055D800046A012A67EEA67A15D0022A67EEA67A2F
:1055E80011D0032A67EEA67A0DD0042A67EEA67AB0
:1055F80009D0052A67EEA67A05D067EEA67A062AAC
:1056080018BF67EEA67A002C3BD087EE277A5DF8A4
:10561800044B20EE070A70479178A1F13003092B5B
:1056280002F1020230D80124AFE75378A3F1300128
:10563800C8B2092802F1010293D8F2EE046AF0EE2A
:10564800665A07EE901AF8EEE77A12F8013F87EEED
:10565800A66AA3F13001C8B2092866EEA56A37EE3A
:10566800067AEED97DE75378BFEE000A02465EE778
:105678009178A1F13003092B02F1020284D9F7EEE7
:10568800007A27EE277AC2E7F7EE007ABDE7F7EE51
:10569800007A9BE70000000020BCBE4CF8B5064627
:1056A80015460846B6FBF2F434B905FB14640C4BF6
:1056B8001B5D00F8013BF8BDB4FBF2F75FB905FBD1
:1056C8001747074B05FB1464DA5D00F8012B1B5DD7
:1056D80000F8013BF8BD3846FFF7E0FFEFE700BFF1
:1056E800F0460308B5EEC00ADFED677A674AF1EEC7
:1056F80010FACCBF30EE270A30EE670ADFED647A85
:1057080020EE270A2DE9F047FDEEC07A88B017EEA3
:10571800904A84EAE4760023A6EBE476CDE90233E6
:105728000493A2FB06325FEAD208054641D105AFD1
:1057380058483946554BA3FB0623DB0803EB830384
:10574800A6EB4303002CC35C0B704FF00002ACBF08
:1057580020232D234A7038468DF808302AF0B0FFF0
:105768000128394639D0022842D0032805BF302302
:1057780002A802A88DF809302BF085FE02A82AF0AD
:105788009FFF0338C4B2224602A928462BF0B1FE77
:1057980000232B5528462AF093FF2E22431C02A9EA
:1057A8002A542144E8182BF08AFE284608B0BDE8A0
:1057B800F087394BA3FB06235B0922D105AF354897
:1057C8003946324AA2FB0832D20802EB8202A8EB21
:1057D8004202835C01F8013BACE7302302A88DF854
:1057E80009308DF80A308DF80B302BF04CFEC5E7E8
:1057F800302302A88DF809308DF80A302BF043FECB
:10580800BCE7264AA2FB06125FEA92190ED105AF41
:10581800204839461D4AA2FB03C2D20802EB820285
:10582800A3EB4203C35C01F8013BCAE71C4AA2FB95
:1058380006125FEA523A0ED105AF16483946134AA6
:10584800A2FB09C2D20802EB8202A9EB4202825CE7
:1058580001F8012BDEE71348B6FBF0F058B905AFA5
:1058680039460A20BAFBF0F200FB12A20948825C12
:1058780001F8012BE3E705AF39460A220193FFF748
:105888000DFF019B0146ECE76F12033ACDCCCCCC5F
:1058980000007A44F04603081F85EB51D34D62108F
:1058A8005917B7D1A08601000F4B2DE93048D3E92D
:1058B800004554EA05020AD1034640F201120020CD
:1058C8001880988098715A801881BDE83088074BF5
:1058D8001A6814EB020B45F1000C5A466346FAF7B6
:1058E80097FD0120BDE83088A030002050540020EA
:1058F80025F008BF02B370B48E1803E0121B14D150
:10590800B14215D010F8012BA2F14103192B11F85F
:10591800013BA3F1410598BF2032192D03F1200462
:10592800ECD9D21A01D1002BEAD1104670BC7047CD
:105938000022104670BC70471046704770B5044688
:1059480008460D462AF0BCFE064602E014F8013F60
:1059580043B1324629462046FFF7CCFF0028F5D14F
:10596800204670BD1C46204670BD00BF4FF0FF3278
:10597800FFF7C0BFA0F16103192B98BF203870470B
:10598800A0F14103192B98BF20307047202805D07B
:10599800093804288CBF0020012070470120704777
:1059A800613819288CBF0020012070474138192818
:1059B8008CBF002001207047303809288CBF002098
:1059C80001207047A0F13003092B07D920F02000EF
:1059D800413819288CBF00200120704701207047EA
:1059E80030B402681146531C036011F8024B016081
:1059F800D31C517803609378151D05601B0443EA96
:105A08000123D078234343EA006030BC704700BFCD
:105A18000368591C1A46016012F8021B0260587884
:105A280041EA0020704700BF03685A1C02601878DA
:105A3800704700BF70B5044608460E462AF040FE7F
:105A480031460546024620682BF0F1FC20682844C0
:105A5800206070BD38B50446006815462BF0E7FC99
:105A680022682A44226038BD03685A1C026010B4B8
:105A7800197003680A0A5C1C04601A7003680A0C2F
:105A88005C1C04601A700368090E5A1C02601970C5
:105A98005DF8044B704700BF03685A1C0260197018
:105AA8000368090A5A1C0260197070472DE9F0430F
:105AB800002489B006460D461F46A04605E0252964
:105AC8000CD030460134A847039A531C039311782D
